:020000040800F2
:10000000F80C0020890100082D1300082B0C0008B3
:100010009912000869060008E73400080000000093
:100020000000000000000000000000006B2A000833
:10003000ED0600080000000001270008952C0008CC
:10004000A3010008A3010008A3010008A301000800
:10005000A3010008A301000849070008A301000844
:100060007D070008B1070008E5070008A3010008A4
:10007000A3010008A3010008A3010008A3010008D0
:10008000A3010008A3010008A3010008A3010008C0
:10009000A3010008A3010008A3010008A3010008B0
:1000A000A3010008A3010008A3010008A3010008A0
:1000B000A3010008F92C0008A3010008A30100080F
:1000C000A3010008A3010008A3010008A301000880
:1000D000A301000825320008493200086D320008EB
:1000E000A3010008A3010008A301000800F002F822
:1000F00000F03AF80AA090E8000C82448344AAF188
:100100000107DA4501D100F02FF8AFF2090EBAE885
:100110000F0013F0010F18BFFB1A43F0010318473B
:10012000D8420000F8420000103A24BF78C878C1D5
:10013000FAD8520724BF30C830C144BF04680C60ED
:10014000704700000023002400250026103A28BF35
:1001500078C1FBD8520728BF30C148BF0B60704739
:100160001FB51FBD10B510BD00F033F81146FFF7E5
:10017000F7FF03F059FE00F051F803B4FFF7F2FF68
:1001800003BC03F0A6FA000009488047094800476D
:10019000FEE7FEE7FEE7FEE7FEE7FEE7FEE7FEE737
:1001A000FEE7FEE704480549054A064B7047000094
:1001B000992C0008ED000008F8060020F80C00203B
:1001C000F8080020F8080020704770477047704713
:1001D0007047754600F028F8AE460500694653465C
:1001E00020F00700854618B020B5FFF7DBFFBDE81B
:1001F00020404FF000064FF000074FF000084FF08E
:10020000000B21F00701AC46ACE8C009ACE8C0091E
:10021000ACE8C009ACE8C0098D4670470446AFF3AE
:1002200000802046FFF7A9FF004870479406002091
:1002300021B1826842F00102826003E0826822F00C
:10024000010282607047000010B5044612488442E3
:1002500008D10121401502F091FA0021601502F049
:100260008DFA17E00D48844208D10121001502F0F3
:1002700085FA0021201502F081FA0BE0084884423B
:1002800008D10121C80302F079FA00214FF400409F
:1002900002F074FA10BD0000002401400028014063
:1002A000003C0140014600208A6802F004020AB1C5
:1002B000012000E000207047014600208A6802F01B
:1002C00008020AB1012000E00020704730B5024664
:1002D0000020002350680F4C20400D790C6844EA40
:1002E00005242043506090680B4C2040D1E9025413
:1002F0002C434D7944EA450420439060D06A20F4B1
:1003000070000C7C641EE4B2234340EA0350D062C8
:1003100030BD0000FFFEF0FFFDF7F1FF816841F006
:10032000080181607047816841F004018160704775
:1003300008B50121082002F011FA04208DF803000D
:100340008002ADF800006946024800F08DFB00F025
:10035000EFFC08BD000C014070B50446002600F01B
:100360009DFD2546E11704EB11610912A02202EB65
:100370004101C8B200F058FD00F0DCFDE11704EBCC
:1003800011610912A4EB0121C8B200F04DFD00F08B
:10039000D1FD00F083FDA12000F046FD00F0CAFD74
:1003A000002000F009FD064600F09EFD304670BDBD
:1003B00070B504460E4600F071FD2546E11704EBCA
:1003C00011610912A02202EB4101C8B200F02CFD1C
:1003D00000F0B0FDE11704EB11610912A4EB01215B
:1003E000C8B200F021FD00F0A5FD304600F01CFD74
:1003F00000F0A0FD00F078FD0A2003F0BDF970BD0B
:1004000000B587B001214FF4017002F0A7F94FF455
:10041000004002F077F98020ADF8040000208DF84C
:10042000070001A9174800F01FFB1748FFF70CFF52
:10043000002002908DF80C008DF80D004FF4602024
:1004400004900020059001208DF8180002A90E48A4
:10045000FFF73CFF01210C48FFF7EAFE0A48FFF7CF
:100460005DFF00BF0848FFF727FF0028FAD10648C4
:10047000FFF759FF00BF0448FFF714FF0028FAD127
:1004800007B000BD000801400024014001200549DB
:10049000054A1278885404480078401C02490870C4
:1004A000704700005A00002060000020022005492B
:1004B000054A1278885404480078401C02490870A4
:1004C000704700005A00002060000020032005490A
:1004D000054A1278885404480078401C0249087084
:1004E000704700005A0000206000002004200549E9
:1004F000054A1278885404480078401C0249087064
:10050000704700005A0000206000002010B5E9B1DB
:10051000134A1288521C92B2114B1A80114B124C82
:10052000247833F814309A4204DB00220C4B1A80F2
:100530000D4A10700A4A1288052A03DA00220B4B72
:100540001A600BE00122094B1A6007E00022044BFD
:100550001A80074B1A800122044B1A6010BD00005C
:100560007E000020C6430008820000209C812142BA
:1005700080000020E1B1114A1288521C92B20F4B48
:100580001A804B2A03DB00221A800D4A10700D4A94
:100590000B4B1B7832F81320084B1B889A4203DD63
:1005A0000122094B1A6008E00022074B1A6004E0A0
:1005B0000022024B1A80044B1A607047840000200E
:1005C000860000209E4300089881214200200449B3
:1005D000087001200349087005200349087070471E
:1005E0006E0000206F0000203300002018480078C3
:1005F000002826DD17480088401C80B21549088075
:100600001549164A127831F81210884208DB00208A
:10061000104908800E480078401E0D49087015E00A
:100620000F480E49097830F811000A4909888842B4
:1006300003DC00200B49086008E00120094908603C
:1006400004E0002003490880064908607047000064
:100650006F0000208A000020E24300086E000020A6
:10066000EC4300089001214200BFFEE710B50C48A2
:100670000078012812DD0A480078401E08490870F9
:10068000084602784FF4CC714FF4D27002F0EEFFBE
:1006900000200449087001200349087010BD0000C3
:1006A0008C0000206E0000206F00002010B50C4868
:1006B0000078632812DA0A480078401C084908705C
:1006C000084602784FF4CC714FF4D27002F0CEFF9E
:1006D00000200449087001200349087010BD000083
:1006E0008C0000206E0000206F00002070472DE974
:1006F000F04104460D4616460A2094FBF0F0C7B2BE
:100700003B4632462946052003F00AF90A2094FBAD
:10071000F0F100FB1140C7B205F1180081B23B4671
:100720003246052003F0FCF8BDE8F08170B50446C0
:100730000D46164604F14000C3B232462946052054
:1007400003F0DEF870BD000010B50A2003F014F8C5
:100750000121084800F05CFA012807D1064800682A
:1007600008B9012000E0002003490860012000F0E2
:1007700053F810BD000801409401234210B50A202F
:1007800002F0FAFF0421084800F042FA38B907489D
:10079000006808B9012000E0002004490860042036
:1007A00000F03AF810BD0000001801409481214289
:1007B00010B50A2002F0E0FF0821084800F028FAEE
:1007C00038B90748006808B9012000E00020044952
:1007D0000860082000F020F810BD0000001801405B
:1007E0009401234210B50A2002F0C6FF10210848E8
:1007F00000F00EFA38B90748006808B9012000E097
:10080000002004490860102000F006F810BD000028
:10081000001801409481214201490860704700009E
:10082000140401400848007820F00100401C0649EB
:10083000087005200549087000200549087001204E
:100840000449087070470000320000203300002087
:100850006E0000206F00002030B5044604254FF4E0
:10086000302000F06FF80546042D17D10C480069C0
:1008700040F002000A49086108464461006940F0FE
:10088000400008614FF4302000F05CF80546044851
:10089000006941F6FD71084001490861284630BDF4
:1008A0000020024004200B49C96801F0010109B190
:1008B00001200EE00749C96801F0040109B10220D6
:1008C00007E00449C96801F0100109B1032000E004
:1008D00004207047002002400348006940F0800077
:1008E00001490861704700000020024070B50446CD
:1008F0000D460426F00200F025F80646042E11D11C
:100900000948006940F00100074908612580F002AC
:1009100000F018F806460448006941F6FE710840E8
:1009200001490861304670BD002002400248034979
:100930004860034848607047230167450020024033
:10094000AB89EFCD00B502460423FFF7ABFF0346AA
:1009500003E0FFF7A7FF0346521E012B01D1002A37
:10096000F7D102B90523184600BD000070B5002577
:100970000024364801780A20FFF71AFD052002F00E
:10098000FBFEA1210B20FFF713FD052002F0F4FE72
:1009900063210C20FFF70CFD052002F0EDFE2C4832
:1009A00001780D20FFF704FD052002F0E5FE002090
:1009B000284908700120284908700A20FFF7CCFC5C
:1009C000054622480078854201D0601CC4B20B2045
:1009D000FFF7C2FC0546A12D01D0601CC4B20C205B
:1009E000FFF7BAFC0546632D01D0601CC4B20D2090
:1009F000FFF7B2FC054616480078854201D0601C1E
:100A0000C4B23CB915A340F2D312D11C052002F0A8
:100A1000B7FF09E0C82002F0AFFE11A340F2D312E5
:100A2000D11C052002F0ACFF0EA340F213224FF4BC
:100A30009D71052002F0A4FF0AA340F213224FF497
:100A4000EB71052002F09CFF70BD00008E000020BD
:100A50008D0000206E0000206F0000204F4B200012
:100A600045525200202020002DE9F0410246002589
:100A70000026002000230024002791F803C00CF07A
:100A80000F0591F803C00CF0100CBCF1000F03D05F
:100A900091F802C04CEA050591F800C0BCF1000FC6
:100AA00031D0146800202BE04FF0010C0CFA00F359
:100AB000B1F800C00CEA03069E4220D183004FF03B
:100AC0000F0C0CFA03F7BC4305FA03FC4CEA0404D0
:100AD00091F803C0BCF1280F06D14FF0010C0CFABD
:100AE00000FCC2F814C00AE091F803C0BCF1480F42
:100AF00005D14FF0010C0CFA00FCC2F810C0401CEC
:100B00000828D1D31460B1F800C0BCF1FF0F34DD68
:100B1000546800202EE000F1080C4FF0010808FA9C
:100B20000CF3B1F800C00CEA03069E4221D1830009
:100B30004FF00F0C0CFA03F7BC4305FA03FC4CEA28
:100B4000040491F803C0BCF1280F05D100F1080C92
:100B500008FA0CF8C2F8148091F803C0BCF1480FF1
:100B600007D100F1080C4FF0010808FA0CF8C2F8A0
:100B70001080401C0828CED35460BDE8F0810000EE
:100B8000F0B50A46002300240021002500F00046AD
:100B9000B6F1004F02D11D4EF16901E01B4E7168A4
:100BA000C0F3034583B200F44016B6F5401F08D1E8
:100BB00021F07061154E766826F07066134F7E60E6
:100BC00012E000F48016B6F5801F06D1032606FA5F
:100BD00005F4A14341F0706106E0460D360103FAC9
:100BE00006F6B14341F0706122B1460D360103FAB9
:100BF00006F6314300F00046B6F1004F02D1034E35
:100C0000F16101E0014E7160F0BD000000000140A3
:100C10000246002093680B400BB1012000E0002049
:100C20007047416170470161704700BFFEE70000F7
:100C3000E1B1114A1288521C92B20F4B1A80082A55
:100C400003DB00221A800D4A10700D4A0B4B1B78F3
:100C500032F81320084B1B889A4203DD0122094B0E
:100C60001A6008E00022074B1A6004E00022024BE1
:100C70001A80044B1A6070477A0000207C00002024
:100C80008C430008A4812142E1B1114A1288521C10
:100C900092B20F4B1A80082A03DB00221A800D4AF9
:100CA00010700D4A0B4B1B7832F81320084B1B8831
:100CB0009A4203DD0122094B1A6008E00022074B2B
:100CC0001A6004E00022024B1A80044B1A6070473D
:100CD00076000020780000208C43000880812142AB
:100CE00010B500200F4908600F48006820F47060BC
:100CF0000D4908600846006840F440700860002014
:100D00000A49C1F8A801642002F05CFD01200549F0
:100D10000860642002F056FD00200449C1F8AC01CF
:100D200010BD0000AC812142040C01400080214232
:100D300008B50121082001F011FD4FF44060ADF825
:100D4000000010208DF8030003208DF80200694692
:100D50000448FFF789FE4FF440610248FFF763FF44
:100D600008BD0000000C014010B500200F490860CC
:100D70000F48006820F470600D490860084600685C
:100D800040F44070086001200A49C1F8A8016420BD
:100D900002F018FD012005490860642002F012FDF0
:100DA00000200449C1F8AC0110BD0000AC81214213
:100DB000040C01400080214270B50546002417480C
:100DC000006820F47060154908600846006840F427
:100DD00000600860002616E00020114908606420C9
:100DE00002F0F0FC01200F49C1F8AC016006040ECE
:100DF0000B488438006808B1601CC4B2322002F08D
:100E0000E1FC701CC6B2082EE6DB15B9FFF7ACFF9B
:100E100001E0FFF765FF204670BD0000040C0140B3
:100E2000AC8121420080214270B504461848006818
:100E300020F47060164908600846006840F440706D
:100E4000086000201349086000251EE0E00920B179
:100E500001201049091F086003E000200D49091F07
:100E600008606006040E642002F0ACFC0120094911
:100E70000860642002F0A6FC00200749C1F8AC011C
:100E8000642002F09FFC681CC5B2082DDEDB70BD3B
:100E9000040C0140AC8121420080214210B50F4872
:100EA000006820F470600D4908600846006840F44E
:100EB0004070086001200A4908600A49C1F8AC0185
:100EC000C82002F07FFC002005490860C82002F01D
:100ED00079FC00200349C1F8AC0110BD040C0140AD
:100EE000A88121420080214210B50F48006820F4FB
:100EF00070600D4908600846006840F44070086062
:100F000000200A4908600A49C1F8A801C82002F077
:100F100059FC0120054908600549C1F8A801C8200D
:100F200002F050FC10BD0000040C0140AC812142D5
:100F30000080214210B500241548006820F470603C
:100F4000134908600846006840F40060086001200A
:100F500010490860322002F035FC01200E49C1F82A
:100F6000AC01322002F02EFC07E0601CC4B2FA2C67
:100F700003DDFFF7B9FF012010BD06488038006887
:100F80000028F2D10349091D086000BFF4E7000002
:100F9000040C0140A88121420080214210B50020AC
:100FA0002449087001202449087024480078032847
:100FB00003D022480078042809D12148007801286C
:100FC0002FDD1F480078401E1D49087029E01B488E
:100FD0000078092809D11A480078012821DD18482D
:100FE0000078401E164908701BE01548007801285B
:100FF00017DD13480078401E114908700846007834
:101000000A2804DC084600780E49887006E00C487F
:1010100000780A21C1EB40000A49887001200A4982
:1010200008700A4802880A48018805480078FFF7D6
:101030005EFB10BD6E0000206F000020330000201A
:101040003E00002036000020350000204C0000202B
:101050004A00002010B500202449087001202449CE
:10106000087024480078032803D022480078042818
:1010700009D12148007808282FDA1F480078401C41
:101080001D49087029E01B480078092809D11A4831
:1010900000780F2821DA18480078401C164908709B
:1010A0001BE0154800780F2817DA13480078401C19
:1010B00011490870084600780A2804DC08460078C0
:1010C0000E49887006E00C4800780A21C1EB400008
:1010D0000A49887001200A4908700A4802880A48AB
:1010E000018805480078FFF702FB10BD6E00002064
:1010F0006F000020330000203E000020360000205A
:10110000350000204C0000204A00002008B50121D5
:101110000D2001F023FB10208DF8030003208DF833
:1011200002005020ADF8000069460E48FFF79CFC15
:1011300050210C48FFF775FD01210B48FFF720FDFA
:1011400040F2FB20ADF8000069460848FFF78CFC30
:1011500040F27B210548FFF764FD80210348FFF73B
:1011600062FD08BD0008014000023000000C014093
:1011700010B508480078C0F3001050B10548007859
:1011800020F010000349087001200349087000F0A6
:1011900005F810BD320000203500002010B50E48C3
:1011A0000078012816D100200B4908700B490878F7
:1011B00003F086F80949487803F082F807498878EF
:1011C00003F07EF80549C87803F07AF803490879F6
:1011D00003F076F810BD0000350000203600002036
:1011E00070B500250024264801780A20FFF7E0F8B2
:1011F000052002F0C1FAAA210B20FFF7D9F805203B
:1012000002F0BAFA00201F49087001201E49087038
:101210000A20FFF7A1F8054619480078854201D059
:10122000601CC4B20B20FFF797F80546AA2D01D029
:10123000601CC4B244B915A340F213224FF49D714F
:10124000052002F09DFB0AE0C82002F095FA10A3E9
:1012500040F213224FF49D71052002F091FB0DA383
:1012600040F2D312D11C052002F08AFB09A340F200
:1012700013224FF4EB71052002F082FB70BD0000D9
:101280008E0000206E0000206F0000204F4B2000D9
:10129000455252002020200000BFFEE710B500207C
:1012A0000B49087001200B4908700B480078012891
:1012B00004DD09480078401E074908700748028885
:1012C0000748018804480078FFF730FA10BD000095
:1012D0006E0000206F0000203F0000205000002022
:1012E0004E00002010B500200B49087001200B496A
:1012F00008700B480078042804DA09480078401C7C
:1013000007490870074802880748018804480078A0
:10131000FFF70CFA10BD00006E0000206F000020E7
:101320003F000020500000204E000020704710B504
:101330004FF4A06000F03AF810BD000070B5002135
:1013400000230F22C47804B3154C246804F4E0642D
:10135000C4F5E064210AC1F10403CA40447804FAE8
:1013600003F184781440214309010E4C0678A155FD
:10137000047804F01F050124AC4005786D11AD0020
:1013800005F1E025C5F8004109E0047804F01F05E7
:101390000124AC40044D0678761145F8264070BD16
:1013A0000CED00E000E400E080E100E002490143D0
:1013B000024A1160704700000000FA050CED00E0E1
:1013C00010B511B3144A1070144A1288521C92B20C
:1013D000124B1A80124B104C247833F814309A4276
:1013E00002DB00220D4B1A800E4A0B4B1B7832F8A1
:1013F00013200A4B1B889A4203DD00220A4B1A6015
:1014000008E00122084B1A6004E00022034B1A8016
:10141000054B1A6010BD000074000020720000200F
:1014200074430008804300089801214210B5012050
:1014300051490870514908705148007820F0010066
:101440004F4908704FF4C4704E490880FC204E4943
:1014500008804FF416704D4908804FF4B1704C4924
:1014600008804FF491704B4908804FF4B1704A499D
:101470000880102002F078FA4848838842880121C9
:1014800002F024FA404802883E4801884448008817
:1014900002F080FC3E4802883C48018836480078CB
:1014A000FFF725F93C4802883A480188334800781C
:1014B000FFF73CF902F0ACF921220021394802F093
:1014C00033FB20220021384802F02EFB222200218B
:1014D000364802F029FB31220021354802F024FB76
:1014E00032220021334802F01FFB33220021324810
:1014F00002F01AFB34220021304802F015FB392299
:1015000000212F4802F010FB3A2200212D4802F062
:101510000BFB26E002F09EFA2B480078092810D039
:101520001748007820F00100401C15490870084653
:10153000007820F0080008700846007820F02000AD
:10154000087002F057F80E480078C0F3C00018B1D8
:1015500001201E49086002E000201C490860FFF7D6
:1015600007FE0748007800F001000028D2D002F002
:1015700005FC02F06FFA10BD3E0000203F00002085
:101580003200002046000020480000204A000020D1
:101590004C0000204E000020500000202A4300088C
:1015A0003C000020752B000805260008CD0500082A
:1015B000DD31000855310008551000089D0F000866
:1015C000E51200089D1200083300002084812142AA
:1015D00010B500207B4908704FF4E1607A4908801B
:1015E00001207A49087002207949487077480078CC
:1015F00088700020C8707748007820F00100754995
:101600000870B4207449088040F25910734908806A
:1016100040F221207249088040F259107149088037
:101620000E2002F0A1F9704883884288012102F05F
:101630004DF96A480288684801886348008802F0CA
:10164000A9FB684802886648018860480078FFF76F
:101650004EF802F0DDF821220021644802F064FA1D
:1016600020220021624802F05FFA22220021614814
:1016700002F05AFA312200215F4802F055FA322274
:1016800000215E4802F050FA332200215C4802F04B
:101690004BFA342200215B4802F046FA86E002F061
:1016A000D9F959480078022817D001204549087017
:1016B0004848007820F00100401C4649087000208E
:1016C0004349C8704348007820F008004149087039
:1016D0000846007820F02000087001F08BFFFFF72B
:1016E00047FD3C480078C0F3400000285ED03948F0
:1016F000007820F002003749087044480078EE284E
:1017000023D100204249087007204249087042480E
:1017100083884288012102F0D9F8334883884288BF
:10172000012102F0D3F800202949C8702948007827
:1017300020F00800274908700846007820F02000B3
:10174000087001201F49087030E030480078A02858
:1017500012D120480078C0F3C00068B11D4800785D
:1017600020F0200020301B49087000202849087014
:1017700001202849087019E024480078A12815D1D3
:1017800014480078C0F3C00080B112480078C0F35C
:10179000401058B10F48007820F020000D49087023
:1017A00000201B49087001201A4908700948007878
:1017B00000F0010000283FF472AF02F0DFFA02F0FF
:1017C00049F910BD350000203C0000203E000020FB
:1017D0003600002032000020460000204800002093
:1017E0004A0000204C0000202A430008752B000806
:1017F00005260008CD050008DD3100085531000838
:10180000551000089D0F00083300002065000020DF
:101810006E0000206F0000203E43000800244FF6B9
:10182000FF714FF4FC6002F061FA502002F08EF874
:101830003C48027840F251114FF4D27001F016FF8B
:10184000394802784FF4CC714FF4D27001F00EFF9A
:101850003648006800B9012401F0DAFFC522344996
:10186000002002F061F9C7223249002002F05CF941
:10187000C6223149002002F057F9C1222F49002029
:1018800002F052F9C2222E49002002F04DF9C32283
:101890002C49002002F048F9C4222B49002002F014
:1018A00043F93EE02148006828BB24BB322001F008
:1018B00063FF1E480068F0B9ECB9012400202349F9
:1018C000087001202249087022A340F213224FF42D
:1018D0009D71052002F054F81EA340F2D312D11CD2
:1018E000052002F04DF81BA340F213224FF4EB71D8
:1018F000052002F045F80D48006801280FD174B1A9
:10190000322001F039FF09480068012807D134B1BD
:10191000002400200D49087001200D49087002F0D4
:1019200099F8BFE78D0000208C0000203081214213
:10193000E1110008ED3400086D0900089D31000830
:1019400015310008AD0600086D0600086E00002085
:101950006F000020202020002DE9F0470026B1462E
:1019600000270024A0460025122001F0FDFF01F011
:101970004FFFB1220021994802F0D6F8B22200218F
:10198000974802F0D1F8B3220021964802F0CCF833
:10199000B4220021944802F0C7F880E09348006820
:1019A000002848D1002E46D1322001F0E5FE8F48B4
:1019B000006800283FD1002E3DD101260A20FEF705
:1019C000CBFC81460B20FEF7C7FC07460C20FEF738
:1019D000C3FC04460D20FEF7BFFC8046B9F13C0F66
:1019E00023D1552F0BD10020814908700120814956
:1019F0000870C8EB081080007F49088050E0A12FD4
:101A00000CD100207A49087001207A490870C8EB8F
:101A10000810800078490880632441E0022074495E
:101A2000087003207349087005E0022070490870AF
:101A30000320704908706D480068012812D18EB1EA
:101A4000322001F099FE6948006801280AD14EB1A0
:101A50000026122001F088FF00206549087001204F
:101A60006449087065480078062814DB0020634943
:101A70000870002508E06248405D6249495D88427F
:101A800000D003E0681CC5B2062DF4DB00BF062DB4
:101A900001DBFFF7C3FE01F0DDFFFFF769FB7DE728
:101AA00000BF012001F052FF0A2094FBF0F000F08B
:101AB000FF0A53461A22A821042001F031FF0A2010
:101AC00094FBF0F100FB114000F0FF0A53461A228C
:101AD000B821042001F024FF474800884FF4167114
:101AE00090FBF1F000F0FF0A53461A22891D0420F2
:101AF00001F016FF404800883C2190FBF1F00A21DC
:101B000090FBF1F201FB120000F0FF0A53461A228B
:101B100040F26E21042001F003FF3A231A2240F222
:101B20007E21042001F0ECFE334800883C2190FB2C
:101B3000F1F201FB12000A2190FBF1F000F0FF0A24
:101B400053461A2240F28E21042001F0E9FE2A4871
:101B500000880A2190FBF1F201FB120000F0FF0A5D
:101B600053461A2240F29E21042001F0D9FE264855
:101B7000007820F001002449087001F049FE43225A
:101B80000021224801F0D0FF06E001F063FF0A20A7
:101B900001F0F2FDFFF7ECFA1B48007800F00100BD
:101BA0000028F2D00A20FEF7D7FB3C280DD1A12F48
:101BB0000ED01CB90A201649087009E0601EC4B294
:101BC00021460C20FEF7F4FB02E00A2010490870C1
:101BD00002F0D4F801F03EFFBDE8F0878D04000864
:101BE000AD040008CD040008ED0400083081214256
:101BF0006E0000206F0000203C00002060000020EC
:101C00005C4300085A00002032000020250800082C
:101C10003300002010B500207B4908704FF4E160CC
:101C20007A49088001207A4908707A4948707848D2
:101C3000007888700020C8707748007820F0010094
:101C400075490870B4207549088040F259107449EC
:101C5000088040F221207349088040F259107249EF
:101C60000880112001F080FE70488388428801219D
:101C700001F02CFE6A4802886848018863480088A1
:101C800002F088F868480288664801886048007851
:101C9000FEF72DFD01F0BCFD21220021644801F07A
:101CA00043FF20220021634801F03EFF2222002151
:101CB000614801F039FF31220021604801F034FF12
:101CC000322200215E4801F02FFF332200215D48BF
:101CD00001F02AFF342200215B4801F025FF86E055
:101CE00001F0B8FE59480078072817D0012046496E
:101CF00008704948007820F00100401C46490870EF
:101D000000204449C8704448007820F00800424947
:101D100008700846007820F02000087001F06AFC86
:101D2000FFF726FA3C480078C0F3400000285ED058
:101D30003948007820F0020037490870444800789C
:101D4000EE2823D10020434908700720424908703B
:101D5000424883884288012101F0B8FD33488388D6
:101D60004288012101F0B2FD00202A49C8702A48AA
:101D7000007820F00800284908700846007820F014
:101D80002000087001202049087030E030480078B9
:101D9000A02812D120480078C0F3C00068B11E48C6
:101DA000007820F0200020301B49087000202949CD
:101DB000087001202849087019E025480078A128FA
:101DC00015D115480078C0F3C00080B112480078E2
:101DD000C0F3401058B11048007820F020000E49A0
:101DE000087000201B49087001201B4908700A4830
:101DF000007800F0010000283FF472AF01F0BEFF50
:101E000001F028FE10BD0000350000203C0000203D
:101E10003E00002036000020320000204600002056
:101E2000480000204A0000204C0000202A430008FF
:101E3000752B000805260008CD050008DD310008D7
:101E400055310008551000089D0F00083300002090
:101E5000650000206E0000206F0000203E43000857
:101E600010B500207B4908704FF4E1607A49088082
:101E700001207A4908707A4948707848007888705B
:101E80000020C8707748007820F00100754908707C
:101E9000B4207549088040F259107449088040F216
:101EA00021207349088040F25910724908800C20A3
:101EB00001F05AFD704883884288012101F006FD37
:101EC0006A480288684801886348008801F062FF18
:101ED000684802886648018860480078FEF707FC79
:101EE00001F096FC21220021644801F01DFE202211
:101EF0000021634801F018FE22220021614801F010
:101F000013FE31220021604801F00EFE3222002132
:101F10005E4801F009FE332200215D4801F004FE15
:101F2000342200215B4801F0FFFD86E001F092FDC4
:101F300059480078012817D00120464908704948BF
:101F4000007820F00100401C4649087000204449F8
:101F5000C8704448007820F00800424908700846DC
:101F6000007820F02000087001F044FBFFF700F932
:101F70003C480078C0F3400000285ED03948007823
:101F800020F002003749087044480078EE2823D139
:101F9000002043490870072042490870424883885E
:101FA0004288012101F092FC334883884288012154
:101FB00001F08CFC00202A49C8702A48007820F0E3
:101FC0000800284908700846007820F020000870B2
:101FD00001202049087030E030480078A02812D154
:101FE00020480078C0F3C00068B11E48007820F097
:101FF000200020301B49087000202949087001206A
:102000002849087019E025480078A12815D11548FD
:102010000078C0F3C00080B112480078C0F34010CF
:1020200058B11048007820F020000E4908700020B8
:102030001B49087001201B4908700A48007800F00D
:10204000010000283FF472AF01F098FE01F002FD9C
:1020500010BD0000350000203C0000203E000020A4
:1020600036000020320000204600002048000020FA
:102070004A0000204C0000202A430008752B00086D
:1020800005260008CD050008DD310008553100089F
:10209000551000089D0F0008330000206500002047
:1020A0006E0000206F0000203E43000810B52B4852
:1020B000007820F0010029490870062001F054FC46
:1020C000562340F249220221012001F019FC32235B
:1020D00040F249220821012001F012FC2E2340F297
:1020E00049220E21012001F00BFC332340F249224A
:1020F0001421012001F004FC1948007830B119487E
:1021000083884288002101F0E1FB05E016488388BE
:102110004288002101F0DAFB01F07AFB4122002124
:10212000124801F001FD42220021114801F0FCFC9F
:10213000452200210F4801F0F7FC03E001F08AFC82
:10214000FFF716F80548007800F001000028F5D0E8
:1021500001F014FE01F07EFC10BD000032000020F2
:10216000400000205243000834430008913F00081B
:10217000DD3F0008A940000810B52448007820F091
:102180000100224908700B2001F0EEFB01F040FB3A
:10219000152200211E4801F0C7FC122200211D4813
:1021A00001F0C2FC102200211B4801F0BDFC1122ED
:1021B00000211A4801F0B8FC13220021184801F050
:1021C000B3FC14220021174801F0AEFC4422002188
:1021D000154801F0A9FC0EE001F03CFC1348007822
:1021E000052806D00948007820F00100401C074966
:1021F0000870FEF7BDFF0548007800F001000028D8
:10220000EAD001F0BBFD01F025FC10BD320000203A
:1022100029400008713F0008494000088940000833
:1022200069400008513F00086D2A00083300002073
:1022300010B50020584908604FF4E1605749088004
:10224000012057490870574908705748007820F016
:1022500001005549087040F2531054490880F72096
:10226000534908804FF407705249088040F26D10BE
:1022700051490880E1205149088040F26D105049D1
:1022800008800F2001F070FB4E48838842880121AE
:1022900001F01CFB46480288444801883F480088FA
:1022A00001F078FD44480288424801883C480078A3
:1022B000FEF71DFA424802884048018839480078F4
:1022C000FEF734FA01F0A4FA212200213E4801F081
:1022D0002BFC202200213D4801F026FC2222002177
:1022E0003B4801F021FC312200213A4801F01CFC5E
:1022F00032220021384801F017FC332200213748F0
:1023000001F012FC34220021354801F00DFC392285
:102310000021344801F008FC3A220021324801F043
:1023200003FC2AE001F096FB30480078032810D027
:102330001D48007820F00100401C1B490870084629
:10234000007820F0080008700846007820F020008F
:10235000087001F04FF914480078C0F3C00020B1B4
:1023600001200D490831086005E000200A490831C4
:1023700008601F490870FEF7FBFE0B48007800F06C
:1023800001000028CED000200349086001F0F6FCCF
:1023900001F060FB10BD0000848121423C00002060
:1023A0003E0000203F0000203200002046000020B8
:1023B000480000204A0000204C0000204E00002071
:1023C000500000202A430008752B0008052600084D
:1023D000CD050008DD310008553100085510000812
:1023E0009D0F0008E51200089D1200083300002030
:1023F0006400002010B50120584908604FF4E160E6
:1024000057490880012057490870574908705748B4
:10241000007820F001005549087040F253105449EB
:102420000880F720534908804FF40770524908800C
:1024300040F26D1051490880E1205149088040F276
:102440006D1050490880102001F08EFA4E488388A4
:102450004288012101F03AFA46480288444801883E
:102460003F48008801F096FC4448028842480188B1
:102470003C480078FEF73BF9424802884048018812
:1024800039480078FEF752F901F0C2F92122002103
:102490003E4801F049FB202200213D4801F044FB69
:1024A000222200213B4801F03FFB312200213A4823
:1024B00001F03AFB32220021384801F035FB33228B
:1024C0000021374801F030FB34220021354801F06B
:1024D0002BFB39220021344801F026FB3A2200214F
:1024E000324801F021FB2AE001F0B4FA30480078CC
:1024F000042810D01D48007820F00100401C1B4922
:1025000008700846007820F0080008700846007837
:1025100020F02000087001F06DF814480078C0F336
:10252000C00020B101200D490831086005E00020FD
:102530000A49083108601F490870FEF719FE0B4868
:10254000007800F001000028CED000200349086088
:1025500001F014FC01F07EFA10BD000084812142DC
:102560003C0000203E0000203F0000203200002000
:1025700046000020480000204A0000204C000020B7
:102580004E000020500000202A430008752B000850
:1025900005260008CD050008DD310008553100088A
:1025A000551000089D0F0008E51200089D12000854
:1025B000330000206400002010B5002001F0C6F9AF
:1025C0000E48007820F001000C49087001F020F955
:1025D000432200210A4801F0A7FA04E001F03AFA88
:1025E0000A2001F0C9F80548007800F00100002831
:1025F000F4D001F0C3FB01F02DFA10BD3200002031
:102600002508000810B50220354908700320354917
:10261000087035480078092817D13448007820F030
:102620000800324908700846007820F02000087041
:102630002F4883884288012101F048F92D4883887A
:102640004288012101F042F948E027480078032838
:1026500003D025480078042817D12448007820F0BA
:102660000800224908700846007820F02000087011
:102670001F4883884288012101F028F91D4883887A
:102680004288012101F022F928E01748007801284A
:1026900007D015480078022803D01348007807288F
:1026A0001CD100201449C8701048007820F00800A0
:1026B0000E4908700846007820F0200008700120BC
:1026C0000E4908700A4883884288012101F0FEF80B
:1026D000084883884288012101F0F8F810BD000005
:1026E0006E0000206F000020330000203200002028
:1026F0003E4300082A430008360000203500002031
:102700007047000001460020034A506820F4404012
:1027100008435060704700000010024029B1064A8B
:10272000D2690243044BDA6104E0034AD26982436E
:10273000014BDA61704700000010024029B1064ADF
:1027400012690243044B1A6104E0034A126982438E
:10275000014B1A61704700000010024029B1064A7F
:1027600092690243044B9A6104E0034A92698243EE
:10277000014B9A61704700000010024029B1064ADF
:10278000D2680243044BDA6004E0034AD268824311
:10279000014BDA60704700000010024030B50021A4
:1027A0000022002400232D4D6D6805F00C0121B19D
:1027B000042905D0082923D105E0294D056022E030
:1027C000274D05601FE0254D6D6805F47012234DFF
:1027D0006D6805F48034022505EB92421CB9214D49
:1027E000554305600BE01D4D6D6805F400351DB1C6
:1027F0001C4D5543056002E0194D5543056002E04C
:10280000174D056000BF00BF144D6D6805F0F00165
:102810000909154D6B5C0568DD4045600F4D6D681D
:1028200005F4E061090A104D6B5C4568DD40856088
:102830000A4D6D6805F46051C90A0B4D6B5C456823
:10284000DD40C560054D6D6805F44041890B074DBD
:102850006B5CC568B5FBF3F5056130BD0010024047
:1028600000127A0000093D0014000020240000201E
:1028700000212E4A1278062A52D2DFE802F0030B1A
:10288000172A323AAA2804D1284A1278521C274B18
:102890001A7049E0012805D1244A1278521C234BB2
:1028A0001A7002E00022214B1A703DE01F4A127894
:1028B000521C1E4B1A70A02802D11D4A507007E00E
:1028C000A12802D11A4A507002E00022174B1A7058
:1028D0002AE0174A9070154A1278521C134B1A704E
:1028E00022E0134AD070114A1278521C0F4B1A7012
:1028F0001AE00F4A5278AB320D4B9B781A440C4BBE
:10290000DB781A44D1B2814203D10122084B1A70FC
:1029100002E00022064B1A700022044B1A7003E0FA
:102920000022024B1A7000BF00BF704788000020D1
:102930006A00002030B503460C461546002207E029
:10294000184600F008F824F812009B1C501C82B2B4
:10295000AA42F5DB30BD0146088870472DE9F05FDB
:1029600080468A461746B8F1006F02D33348804547
:1029700001D3BDE8F09FFDF7D9FFA8F1006B4FEA46
:102980009B25CBF34809C9F50074A74200DC3C46FF
:102990004DE04FF0006101EB85208A142849FFF7D4
:1029A000C9FF00260BE009EB0600254931F81000AD
:1029B0004FF6FF71884200D003E0701C86B2A64239
:1029C000F1DB00BFA6421BDA4FF0006101EB85206E
:1029D000FDF742FF002608E03AF8160006EB090171
:1029E000174A22F81100701C86B2A642F4DB4FF0A1
:1029F000006101EB85208A14114900F023F804E0FE
:102A000022465146404600F01DF8A74200D10FE093
:102A10006D1C4FF000090AEB440AA044381B87B232
:102A2000B7F5007F02DD4FF4007400E03C46B0E7EC
:102A300000BFFDF751FF00BF9BE700000000010849
:102A4000A80000202DE9F04105460E461746002457
:102A500007E036F814102846FDF748FFAD1C601C4F
:102A600084B2BC42F5DBBDE8F08170470020044928
:102A70000870012003490870062003490870704758
:102A80006E0000206F0000203300002010B500F021
:102A900001F810BD0CB5002001900090334800688B
:102AA00040F480303149086000BF3048006800F4CD
:102AB000003000900198401C0190009818B90198CE
:102AC000B0F5A06FF1D12948006800F4003010B1D2
:102AD0000120009001E0002000900098012843D1DF
:102AE0002348006840F0100021490860084600684B
:102AF00020F0030008600846006840F0020008600B
:102B00001A484068194948600846406848600846C5
:102B1000406840F4806048600846406820F47C10BB
:102B200048600846406840F4E8104860084600687D
:102B300040F08070086000BF0C48006800F0007032
:102B40000028F9D00948406820F003000749486090
:102B50000846406840F00200486000BF03484068F3
:102B600000F00C000828F9D10CBD00000010024054
:102B70000020024010B50120344908703449087023
:102B800034480078092819D13348007820F008002B
:102B90000830314908700846007820F020002030C5
:102BA00008702E4883884288012100F08FFE2C484F
:102BB00083884288012100F089FE45E0254800789D
:102BC000032803D023480078042819D1224800782C
:102BD00020F008000830204908700846007820F0EE
:102BE0002000203008701D4883884288012100F0B1
:102BF0006DFE1B4883884288012100F067FE23E0B8
:102C000014480078012807D012480078022803D021
:102C100010480078072817D101201249087012497E
:102C2000C8700D48007820F0080008300A49087084
:102C30000A4883884288012100F048FE08488388BA
:102C40004288012100F042FE10BD00006E0000200D
:102C50006F000020330000203200002020430008D5
:102C6000484300083500002036000020042808D121
:102C70004FF0E021096941F004014FF0E0221161B9
:102C800007E04FF0E021096921F004014FF0E02254
:102C9000116170477047000010B51348006840F09C
:102CA00001001149086008464068104908400E4973
:102CB0004860084600680E4908400B49086008460D
:102CC000006820F4802008600846406820F4FE0078
:102CD00048604FF41F008860FFF7D8FE4FF0006097
:102CE0000449086010BD0000001002400000FFF819
:102CF000FFFFF6FE08ED00E010B501214E4800F0A0
:102D000040F9002876D001214B4800F02BF94B48C0
:102D10000078092810D14A480078C0F3C00149481A
:102D20000078FDF7F3FB46480078C0F3C001464841
:102D30000078FDF71FFC07E000210846FDF7E6FBE1
:102D400000210846FDF716FC40480088401C80B270
:102D50003E490880B0F5FA6F08DB0020088038484B
:102D6000007820F01000103035490870384800888D
:102D7000401C80B2364908800A2842DB00200880C7
:102D80002F48007820F0400040302D4908702B4833
:102D90000078032803D029480078042808D128485F
:102DA0000078C0F3C00127480078FEF709FB03E074
:102DB00000210846FEF704FB20480078042808D1CB
:102DC0001F480078C0F3C0011F480078FDF730FFAE
:102DD00003E000210846FDF72BFF18480078032880
:102DE00009D117480078C0F3C00117480078FDF7F3
:102DF0004BFF04E01EE000210846FDF745FFFDF70C
:102E0000F5FB14480088401C80B21249088042F249
:102E1000107188420EDB0A480078C0F3401048B1B8
:102E200000200C4908800648007820F00400001DAE
:102E30000349087010BD000000040040330000206A
:102E4000320000203F0000203E0000202E00002025
:102E5000300000202C0000207FB505460C460121E3
:102E60000220FFF75BFCADF80850ADF804400020ED
:102E7000ADF80A00ADF8060001A90E4800F0F8F818
:102E8000012211460B4800F08DF81D208DF800003E
:102E900002208DF8010003208DF8020001208DF83A
:102EA00003006846FEF74AFA0121024800F05DF887
:102EB0007FBD00000004004030B589B005460C46D7
:102EC00001210420FFF72AFC01210820FFF746FC1E
:102ED0004FF48070ADF8200018208DF823000320F7
:102EE0008DF8220008A91748FDF7BEFDADF818506F
:102EF000ADF814400020ADF81A00ADF8160005A991
:102F0000114800F0B5F87020ADF804000120ADF8CC
:102F100006000020ADF80A000220ADF80C0001A95F
:102F2000094800F049F80821074800F095F8012108
:102F3000054800F00BF80121034800F016F809B02D
:102F400030BD0000000C01400008004021B10288A3
:102F500042F08002028004E002884FF67F731A403C
:102F600002807047CA430282704721B1028842F052
:102F70000102028004E002884FF6FE731A400280CC
:102F8000704730B50246002000230024158A05EA68
:102F90000103958905EA010413B10CB1012000E099
:102FA000002030BD1AB183890B43838102E08389FD
:102FB0008B4383817047000070B5002400220023FA
:102FC000058C4FF6FF6635400584028C8388848B20
:102FD0004FF68F752C404FF6FC752C400D882C4316
:102FE0004FF6FF552A400D894FF6FF7606EA052574
:102FF0002A434D8806EA05252A43154DA84202D0EA
:10300000144DA8421DD14FF2FF752A404D894FF64D
:10301000FF7606EA05252A434FF6FF352A408D88BC
:1030200006EA05252A434EF6FF752B404DF6FF753F
:103030002B408D8906EA05152B43CD8906EA051537
:103040002B4383808483CD888587028470BD0000F4
:10305000002C0140003401400A460021818B4FF6CC
:10306000F7731940114381837047818770470000CF
:10307000002202881D4B98420ED01D4B98420BD067
:10308000B0F1804F08D01B4B984205D01A4B9842A4
:1030900002D01A4B984204D14FF68F731A404B88D6
:1030A0001A43174B984207D0164B984204D04FF65C
:1030B000FF431A40CB881A4302808B8883850B8894
:1030C00003850A4B98420BD0094B984208D00E4B0F
:1030D000984205D00D4B984202D00D4B984201D139
:1030E0000B7A03860123838270470000002C014085
:1030F000003401400004004000080040000C004083
:103100000010004000140040004001400044014015
:103110000048014010B50C480078012812DD0A482B
:103120000078401E084908700846027840F25111A4
:103130004FF4D27000F09AFA002004490870012080
:103140000349087010BD00008D0000206E000020B3
:103150006F00002010B500200B49087001200B49BA
:1031600008700B4800883C2804DD094800883C387A
:1031700007490880074802880748018804480088F2
:1031800000F008FE10BD00006E0000206F0000205F
:103190003C000020480000204600002010B50C48EC
:1031A0000078632812DA0A480078401C0849087041
:1031B0000846027840F251114FF4D27000F056FAEE
:1031C00000200449087001200349087010BD000068
:1031D0008D0000206E0000206F00002010B5002040
:1031E0000B49087001200B4908700B480088B0F5A6
:1031F000616F04DA084800883C30074908800748B6
:103200000288074801880448008800F0C3FD10BD0B
:103210006E0000206F0000203C00002048000020CD
:103220004600002010B540F22551064800F097F8FE
:1032300030B1044800F04EF9C4B2204600F04CFA18
:1032400010BD00000038014010B540F2255106487D
:1032500000F085F830B1044800F03CF9C4B22046D3
:1032600000F08AFC10BD00000044004010B540F2A0
:103270002551064800F073F830B1044800F02AF9EF
:10328000C4B22046FFF7F4FA10BD00000048004029
:1032900021B1828942F40052828104E082894DF694
:1032A000FF731A408281704710B50446204884425B
:1032B00009D101218803FFF761FA00214FF4804012
:1032C000FFF75CFA32E01B48844209D1012148042F
:1032D000FFF734FA00214FF40030FFF72FFA25E012
:1032E0001548844209D101218804FFF727FA0021FB
:1032F0004FF48020FFF722FA18E01048844209D1E9
:103300000121C804FFF71AFA00214FF40020FFF74B
:1033100015FA0BE00A48844208D101210805FFF79D
:103320000DFA00214FF48010FFF708FA10BD0000DD
:10333000003801400044004000480040004C00407C
:103340000050004002460020B1F5007F00D100BFD0
:1033500013880B400BB1012000E00020704770B5CE
:103360000246002400230025002040F66A16B142E0
:1033700000D100BFC1F3421501F01F03012606FA78
:1033800003F3012D02D19689334006E0022D02D1CC
:10339000168A334001E0968A33400C12012606FA61
:1033A00004F41688344013B10CB1012000E0002071
:1033B00070BDF0B50346002400260025002040F62D
:1033C0006A17B94200D100BF1846C1F3421401F098
:1033D0001F06012707FA06F5012C01D10C3004E085
:1033E000022C01D1103000E014301AB107682F43CD
:1033F000076002E00768AF430760F0BD2DE9F047C2
:1034000086B005460E460024A24600BFA14600270E
:10341000B08900B100BF2F462C8A4CF6FF700440E3
:10342000F08804432C82AC894EF6F3100440B08837
:1034300031890843718908430443AC81AC8A4FF653
:10344000FF400440B0890443AC8201A8FFF7A6F90D
:103450001F48874202D1DDF810A001E0DDF80CA082
:10346000A88900F4004040B10AEBCA0000EB0A1042
:1034700031684900B0FBF1F807E00AEBCA0000EB45
:103480000A1031688900B0FBF1F86420B8FBF0F055
:1034900004012009642101FB1089A88900F400407F
:1034A00040B1322000EBC900B0FBF1F000F00700A2
:1034B000044308E0322000EB09106421B0FBF1F076
:1034C00000F00F0004432C8106B0BDE8F087000037
:1034D0000038014001468888C0F308007047C1F3F6
:1034E00008028280704700BFFEE7000070B500252B
:1034F0000024384801780A20FCF75AFF052000F024
:103500003BF955210B20FCF753FF052000F034F95F
:10351000314801780C20FCF74BFF052000F02CF916
:103520002E4801780D20FCF743FF052000F024F918
:1035300000202B49087001202A4908700A20FCF756
:103540000BFF054623480078854201D0601CC4B2B9
:103550000B20FCF701FF0546552D01D0601CC4B2BD
:103560000C20FCF7F9FE05461B480078854201D087
:10357000601CC4B20D20FCF7EFFE0546174800782A
:10358000854201D0601CC4B244B917A340F2132293
:103590004FF4EB71052000F0F3F90AE0C82000F0C9
:1035A000EBF812A340F213224FF4EB71052000F068
:1035B000E7F90FA340F2D312D11C052000F0E0F987
:1035C0000BA340F213224FF49D71052000F0D8F9AF
:1035D00070BD00008E0000208C0000208D000020B7
:1035E0006E0000206F0000204F4B2000455252001B
:1035F0002020200010B517480078C0F3401040B3D9
:1036000014480078C0F3800018B31248007820F006
:1036100004001049087010480088002805DD0E4895
:103620000088401E0C4908800BE002200B490870FE
:1036300003200B4908704FF4E16007490880FEF74A
:10364000E1FF08480288084801880348008800F024
:10365000A1FB10BD320000203C0000206E000020C5
:103660006F0000204800002046000020F8B5054605
:103670000F461646002400200090642096FBF0F1CF
:1036800000FB11600A2190FBF1F0C4B20A2C0ADAA7
:1036900004F13000C0B28DF800006B463A4629466E
:1036A000052000F06DF90A2096FBF0F100FB116097
:1036B000C4B20A2C0CDA04F13000C0B28DF800005C
:1036C00005F1180081B26B463A46052000F058F922
:1036D000F8BD014600BF70471349097839B9AA28D7
:1036E00020D111490978491C0F4A11701AE00E497E
:1036F000097802290ADA0C490978491E0B4A505404
:1037000009490978491C084A11700BE00021064A52
:103710001170552806D10649097821F00201891C4B
:10372000034A1170704700008700002065000020E8
:103730003200002010B56FF00400FFF797FA0A4836
:1037400000680A49B0FBF1F00949087008460078A2
:1037500000EB4001C1EBC0104FF6FF7101EAC00061
:103760000449088010BD00000000002000127A000B
:10377000280000202A0000200146114A12884A43EE
:103780004FF0E0235A6100229A611A46126942F012
:1037900001021A6100BF4FF0E022106900F001023F
:1037A0001AB100F48032002AF5D04FF0E0221269FD
:1037B00022F001024FF0E0231A6100229A61704763
:1037C0002A0000200146114A12784A434FF0E023B4
:1037D0005A6100229A611A46126942F001021A6186
:1037E00000BF4FF0E022106900F001021AB100F4AE
:1037F0008032002AF5D04FF0E022126922F0010257
:103800004FF0E0231A6100229A61704728000020DF
:103810000020014908707047950000202DE9F0470D
:1038200082460C4615461E46DDE90989089FAA20F6
:1038300000F048FA712000F045FA504600F042FAD4
:10384000201200F03FFAE0B200F03CFA281200F03B
:1038500039FAE8B200F036FA301200F033FAF0B27A
:1038600000F030FA381200F02DFAF8B200F02AFA1F
:103870004FEA282000F026FA08F0FF0000F022FAB4
:103880004FEA292000F01EFA09F0FF0000F01AFAB2
:1038900000F01EFABDE8F0872DE9FE4F04460D4604
:1038A00016461F46DDE90D9ADDF8308006498DE8A1
:1038B000000709782144C8B23B4632462946FFF743
:1038C000ADFFBDE8FE8F000094000020FEB5044669
:1038D0000F4615461E464FB120898DE86100E388EA
:1038E000A28861882078FFF7D7FF08E020898DE85B
:1038F0006100E388A28861882078FFF78FFFFEBD12
:10390000F8B505460E4617461C46002000908DF877
:1039100000406B463A463146284600F031F8F8BD83
:10392000F8B505460E4617461C460A2C0DDA00204F
:10393000009004F13000C0B28DF800006B463A46AA
:103940003146284600F01CF800BFF8BD10B504460B
:10395000AA2000F0B7F9702000F0B4F9204600F07A
:10396000B1F900F0B5F910BD10B504460349097866
:103970002144C8B2FFF7EAFF10BD00009400002008
:103980002DE9F04104460D4616461F464FF000084B
:10399000AA2000F097F9062C1CD2DFE804F00307F8
:1039A0000B0F1317532000F08DF913E06E2000F079
:1039B00089F90FE0542000F085F90BE06F2000F04A
:1039C00081F907E0552000F07DF903E0982000F030
:1039D00079F900BF00BF281200F074F9E8B200F0D6
:1039E00071F9301200F06EF9F0B200F06BF9052CAD
:1039F0001AD1242000F066F9812000F063F9052037
:103A000000F060F911490988081200F05BF90F49CC
:103A1000087800F057F90E490988081200F052F9A9
:103A20000B49087800F04EF907E017F8080000F09D
:103A300049F908F1010000F0FF0817F80800002814
:103A4000F3D100F045F9BDE8F081000096000020B8
:103A50009800002010B5002400F088F8792839D1AA
:103A60002C480078B0BB01202A4908702A48007908
:103A70002949C97800EB012084B200202749087049
:103A80000DE027482549097800EB01108089A04204
:103A900000D10AE021480078401C204908701F48E6
:103AA0000078204909788842EBDB00BF1B4800788A
:103AB0001C49097888420DDA19481849097800EB41
:103AC0000110006830B11649144A127801EB021156
:103AD0000868804700F04AF878281AD10D48007825
:103AE000012816D100200B4908700C4800780D49B8
:103AF000097888420DDA0A480849097800EB011074
:103B0000406830B10649054A127801EB0211486855
:103B1000804710BDA2000020A8040020A3000020C0
:103B2000B40400209500002010B50E4B1B781E2B0E
:103B300016DA0D4B0B4C247803EB041318600A4B78
:103B4000084C247803EB04135960074B054C247888
:103B500003EB04139A81034B1B785B1C014C23700D
:103B600010BD000095000020B4040020014800783A
:103B700070470000A80400204F4909780A2971D233
:103B8000DFE801F0050D444C545C64717D89AA287E
:103B900004D149490978491C474A117089E07328C2
:103BA00007D145490978491C434A117043490870B7
:103BB0002BE0722806D100213F4A11707221404A41
:103BC000117022E0E42805D104213B4A11703B49E1
:103BD00008701AE030B90021374A11707421384A50
:103BE000117012E0792805D10421334A117033494C
:103BF00008700AE0782805D104212F4A11702F4956
:103C0000087002E000212C4A117052E02C494870E3
:103C100029490978491C284A11704AE028498870C6
:103C200025490978491C244A117042E02449C8708A
:103C300021490978491C204A11703AE0204908714D
:103C40001D490978491C1C4A117032E0CC2805D165
:103C500019490978491C184A117002E00021164AD6
:103C6000117026E021E0332805D113490978491C59
:103C7000114A117002E000210F4A117019E0C328A7
:103C800005D10D490978491C0B4A117002E0002149
:103C9000094A11700DE03C2806D10021064A117036
:103CA00006490978064A117003E00021024A1170A2
:103CB00000BF00BF70470000A4000020A500002046
:103CC000A804002010B50446204600F011FB10BDEA
:103CD00010B5CC20FFF7F6FF3320FFF7F3FFC3202A
:103CE000FFF7F0FF3C20FFF7EDFF10BD70B5044675
:103CF0000D460C4804800C480580AA20FFF7E2FF1F
:103D00004020FFF7DFFF2012FFF7DCFFE0B2FFF7F4
:103D1000D9FF2812FFF7D6FFE8B2FFF7D3FFFFF76E
:103D2000D7FF70BD960000209800002018B9002130
:103D3000074A11700AE0142803D11421044A1170B3
:103D400004E0462802D14621014A11707047000064
:103D50009400002010B5AA20FFF7B4FF3020FFF731
:103D6000B1FF0020FFF7AEFF0020FFF7ABFF002000
:103D7000FFF7A8FFFFF7ACFF10BD000000BF04482D
:103D80000078722803D0024800787828F7D170476D
:103D9000A80400202DE9F04104460D4616464FF4D4
:103DA000167094FBF0F0C7B23B4632462946052018
:103DB000FFF7B6FD3C2094FBF0F00A2190FBF1F2F6
:103DC00001FB1200C7B205F1180081B23B46324632
:103DD0000520FFF7A5FD05F1300081B23A233246F8
:103DE0000520FFF78DFD3C2094FBF0F100FB114016
:103DF0000A2190FBF1F0C7B205F1480081B23B46C1
:103E000032460520FFF78CFD0A2094FBF0F100FB01
:103E10001140C7B205F1600081B23B463246052031
:103E2000FFF77EFDBDE8F0811CB5002001900090F9
:103E3000FDF76CF9FDF77BFAFFF77CFC4FF41650A9
:103E400000F0EAF94FF4E13000F094F900214FF46A
:103E5000E150FFF731F840F6B8313748FFF705F980
:103E600000F058F9FFF776FF46216320FEF7F4FFD4
:103E7000FCF7C6FAFCF75CFA0520304908704FF6EB
:103E8000FF714FF47840FFF731FF01202C49087093
:103E90002C4908704FF47A70FFF76EFC4FF47A707B
:103EA000FFF76AFCFA20FFF767FC01226946264803
:103EB000FEF740FDBDF8000024490870012201A969
:103EC0002148801EFEF736FDBDF8040018B1002021
:103ED000FFF72CFF02E01420FFF728FF2BE0174824
:103EE00000780B2825D2DFE800F0240C0F15181BF2
:103EF000091E06122100FEF75FFB1BE0FEF7D6F855
:103F000018E0FDF7ADFF15E0FDF762FB12E0FDF7ED
:103F10008DFA0FE0FEF78CF90CE0FEF76BFA09E082
:103F2000FEF72AF906E0FDF775FE03E0FDF714FD44
:103F300000E000BF00BFD2E70008004033000020CF
:103F40006E0000206F00002002F8000840000020F2
:103F50000920044908700020034908700120034922
:103F600008707047330000206E0000206F000020B2
:103F70000220044908700020034908700120034909
:103F800008707047330000206E0000206F00002092
:103F900008B57B2000900C48007820F00100401C00
:103FA000094908700520094908700020084908706F
:103FB0000120084908700020FFF7B8FE0122694679
:103FC0000548FEF7CBFC08BD32000020330000207E
:103FD0006E0000206F00002000F8000808B50020E7
:103FE00000900C48007820F00100401C094908703E
:103FF0000520094908700020084908700120084977
:1040000008701420FFF792FE012269460548FEF76A
:10401000A5FC08BD32000020330000206E00002007
:104020006F00002000F800080720044908700020F5
:1040300003490870012003490870704733000020CD
:104040006E0000206F00002001200449087000204D
:1040500003490870012003490870704733000020AD
:104060006E0000206F00002004200449087000202A
:10407000034908700120034908707047330000208D
:104080006E0000206F00002003200449087000200B
:10409000034908700120034908707047330000206D
:1040A0006E0000206F00002008B50020009013492A
:1040B00008700120124908701248007808B90120E0
:1040C00000E000200F4908700846007800900122A7
:1040D00069460D48FEF742FC0A48007830B10B48AB
:1040E000838842880021FFF7F1FB05E008488388B8
:1040F00042880021FFF7EAFB08BD00006E000020A7
:104100006F0000204000002002F800085243000821
:104110003443000810B5002415E0AA20FFF7D2FDB3
:104120000020FFF7CFFDFFF7D3FD0520FFF724FBAD
:10413000FFF71CFD742801D1FF2406E0C820FFF71B
:104140001BFB601CC4B2192CE7DB00BFFF2C0BD09B
:1041500009E006480068C0430549C1F890014FF4E2
:10416000FA70FFF709FBF4E710BD0000900121424F
:104170000000214210B586B0044601210420FEF75C
:10418000EDFA01214804FEF7C9FA0420ADF8140045
:1041900018208DF8170005A91D48FCF765FC0820BC
:1041A000ADF8140048208DF8170005A91848FCF751
:1041B0005BFC1848FFF778F826208DF800000320F4
:1041C0008DF801008DF8020001208DF8030068468B
:1041D000FDF7B4F801940020ADF80800ADF80A002E
:1041E000ADF80C00ADF810000C20ADF80E0001A9E0
:1041F0000848FFF703F9012240F225510548FFF76F
:10420000D8F801210348FFF743F806B010BD0000BD
:10421000000801400044004010B586B0044601216A
:1042200044F20400FEF79AFA2348FFF73DF84FF4F2
:104230000070ADF8140003208DF8160018208DF8DA
:10424000170005A91D48FCF70FFC4FF48060ADF87E
:10425000140048208DF8170005A91848FCF704FC45
:1042600025208DF8000003208DF8010002208DF834
:10427000020001208DF803006846FDF75FF8019405
:104280000020ADF80800ADF80A00ADF80C00ADF85C
:1042900010000C20ADF80E0001A90748FFF7AEF89A
:1042A000012240F225510448FFF783F8012102481A
:1042B000FEF7EEFF06B010BD0038014000080140D7
:1042C00010B5044600BF80210848FFF73BF80028DE
:1042D000F9D021460548FFF702F900BF4021034805
:1042E000FFF730F80028F9D010BD00000038014079
:1042F00010B5044600BF80210848FFF723F80028C6
:10430000F9D021460548FFF7EAF800BF40210348ED
:10431000FFF718F80028F9D010BD00000044004055
:104320001800EF00D1012F01110218007401D10112
:10433000B40111020100CA020A00050345000E0083
:10434000EF00D1012F0111020E007401D101B4015F
:1043500011020200CA020A00050345000303040417
:104360000101FF0F74051005AC044804E4031C03AD
:104370005402F2010000D007A00FA00FE803881339
:104380000000E803D007B80BE803FA0000000100C2
:1043900002000300040005000500060006000000FE
:1043A00022002300240025002600270028002900E1
:1043B0002A002B002C002C002D002E002E002F0098
:1043C0002F0030003000E803F40190012C01B4000C
:1043D0004A01BE000000102756132805500A500A53
:1043E00056136E009A01E803F203C20B64009001B9
:1043F000F401E803B80B0000184400080000002096
:10440000A800000028010008C0440008A8000020FF
:10441000500C00004401000800A24A040000000003
:104420000000000001020304060708090000000064
:104430000102030401020304060708090204060836
:104440000000000000000000000000000000550116
:104450000100AA00000000000000000000000000B1
:10446000000000000000000000000000000000004C
:10447000000000000000000000000000000000003C
:10448000000000000000000000000000000000002C
:10449000000000000000000000000000000000001C
:1044A0000000000032283C00000000000000FFFF78
:1044B00000000000000000000000000000000000FC
:04000005080000ED02
:00000001FF
